S0150000426C696E6B5F556E6F5F4C45442E737265635A
S11300000C9434000C943E000C943E000C943E007E
S11300100C943E000C943E000C943E000C943E0064
S11300200C943E000C943E000C943E000C943E0054
S11300300C943E000C943E000C943E000C943E0044
S11300400C943E000C943E000C943E000C943E0034
S11300500C943E000C943E000C943E000C943E0024
S11300600C943E000C943E0011241FBECFEFD8E048
S1130070DEBFCDBF0E9440000C9451000C940000E0
S113008084B1806284B995B180E2892785B92FEF64
S113009083ED90E3215080409040E1F700C00000E0
S10900A0F2CFF894FFCF3B
S9030000FC
